:100000000C9419020C9441020C9441020C9441028C
:100010000C9441020C9441020C9441020C94410254
:100020000C9441020C9441020C9441020C94410244
:100030000C9441020C9441020C9441020C94410234
:100040000C9414230C9441020C94E2220C94BC22D4
:100050000C9441020C9441020C9441020C94410214
:100060000C945E230C94410200407A10F35A00A0D5
:10007000724E18090010A5D4E80000E87648170071
:1000800000E40B54020000CA9A3B000000E1F505B1
:10009000000080969800000040420F000000A086FB
:1000A00001000000102700000000E803000000002D
:1000B0006400000000000A000000000001000000D1
:1000C00000002C76D888DC674F0823DFC1DFAE59EB
:1000D000E1B1B796E5E3E453C63AE651997696E87E
:1000E000E6C28426EB898C9B62ED407C6FFCEFBC02
:1000F0009C9F40F2BAA56FA5F490055A2AF75C932D
:100100006B6CF9676DC11BFCE0E40D47FEF520E662
:10011000B500D0ED902E0300943577050080841E45
:10012000080000204E0A000000C80C333333330FA0
:10013000986E12831141EF8D2114893BE65516CF3D
:10014000FEE6DB18D1844B381BF77C1D901DA4BB49
:10015000E424203284725E228100C9F124ECA1E5FE
:100160003D275D2000626C6E6B696E66007665727D
:1001700000312E302E3100682D62656174003435F7
:1001800000627566662D696E0032353600646576EC
:100190000041726475696E6F20556E6F00637075F3
:1001A0000041546D6567613332385000636F6E00F3
:1001B00057353130300066772D7479706500544DB5
:1001C000504C364968385F4F6950006275696C64FD
:1001D0000041756720313420323032322031353AD7
:1001E00035353A35300000000D0A202020205F5FB1
:1001F0005F20205F5F202020202020202020205F03
:100200005F0D0A2020202F205F20292F202F5F2024
:100210005F5F5F5F5F20202F202F5F5F0D0A202030
:100220002F205F20202F202F202F2F202F205F20F6
:100230005C2F2020275F2F0D0A202F5F5F5F5F2F2D
:100240005F2F5C5F2C202F5F2F2F5F2F5F2F5C5F56
:100250005C0D0A20202020202020202F5F5F5F2FB0
:100260002076312E302E31206F6E204172647569F8
:100270006E6F20556E6F0D0A0000000000250028EB
:10028000002B0000000000240027002A0049503AFB
:100290000044484350204661696C6564210047650D
:1002A0007474696E672049502E2E2E00436F6E6E57
:1002B000656374696E6720746F2000436F6E6E65AE
:1002C0006374696E6720746F20006D73292E00526D
:1002D00065616479202870696E673A20000000002B
:1002E000002300260029000404040404040404027A
:1002F00002020202020303030303030102040810C3
:10030000204080010204081020010204081020008F
:1003100000000800020100000304070000000000C4
:1003200000000044024402440244024402440244E5
:10033000024402440244024402440244024402448D
:10034000024402440244024402440244024402447D
:10035000024402440244024402440244024402446D
:10036000024402560B4302300B43020E0BE60A43D3
:100370000243024302430243024302430243024355
:100380000243024302430243024302430243024345
:100390000243024302430243024302430243024335
:1003A000024302496E76616C696420485720636D90
:1003B000643A20005365727665723A200052656493
:1003C0006972656374696E6720746F20005265619D
:1003D0006479005061636B657420746F6F2062698B
:1003E000673A2000436F6E6E656374206661696CC6
:1003F00065642E20636F64653A2000496E76616CF7
:100400006964206175746820746F6B656E004C6F51
:1004100067696E2074696D656F75740048656172F7
:1004200074626561742074696D656F7574001C2554
:100430008A2E11241FBECFEFD8E0DEBFCDBF13E060
:10044000A0E0B1E0E8E4FDE602C005900D92A63020
:10045000B107D9F726E0A6E0B3E001C01D92A13DA7
:10046000B207E1F712E0C8E1D2E004C02197FE0133
:100470000E949835C731D107C9F70E94A9260C946C
:1004800097360C940000089508958CBD9DBD089585
:1004900020E3FC0120833296862F82958F706F7047
:1004A0006A3030F4605D6293682F8111F5CF089552
:1004B000695CF9CFFC01818D928D089508950895AE
:1004C0000895DC01ED91FC910190F081E02D0994FB
:1004D000AF92BF92CF92DF92EF92FF920F931F9352
:1004E000CF93DF936C017B018B01040F151FEB0190
:1004F0005E01AE18BF08C017D10759F06991D60147
:10050000ED91FC910190F081E02DC6010995892BB8
:1005100079F7C501DF91CF911F910F91FF90EF9077
:10052000DF90CF90BF90AF900895FC01538D448D24
:10053000252F30E0842F90E0821B930B541710F08E
:10054000CF96089501970895FC01918D828D98179B
:1005500061F0A28DAE0FBF2FB11D5D968C91928D73
:100560009F5F9F73928F90E008958FEF9FEF0895A4
:10057000FC01918D828D981731F0828DE80FF11D6D
:10058000858D90E008958FEF9FEF0895FC01918D88
:10059000228D892F90E0805C9F4F821B91098F7381
:1005A0009927089589E594E00E94C60221E0892BED
:1005B00009F420E0822F089580E090E0892B29F053
:1005C0000E94D20281110C9400000895FC01A48DB8
:1005D000A80FB92FB11DA35ABF4F2C91848D90E065
:1005E00001968F739927848FA689B7892C93A08948
:1005F000B1898C91837080648C93938D848D9813D2
:1006000006C00288F389E02D80818F7D8083089564
:10061000EF92FF920F931F93CF93DF93EC0181E052
:10062000888F9B8D8C8D98131AC0E889F9898081F9
:1006300085FF15C09FB7F894EE89FF896083E8892C
:10064000F98980818370806480839FBF81E090E01E
:10065000DF91CF911F910F91FF90EF900895F62EAB
:100660000B8D10E00F5F1F4F0F731127E02E8C8D45
:100670008E110CC00FB607FCFACFE889F98980818A
:1006800085FFF5CFCE010E94E602F1CFEB8DEC0F96
:10069000FD2FF11DE35AFF4FF0829FB7F8940B8FA7
:1006A000EA89FB8980818062CFCF0F931F93CF931C
:1006B000DF938C01D0E0C0E0F801EC0FFD1F6491E6
:1006C000662341F089E594E00E940803892B11F02C
:1006D0002196F2CFCE01DF91CF911F910F91089516
:1006E000682F89E594E00C940803CF93DF93EC0125
:1006F000888D8823B9F0AA89BB89E889F9898C910A
:1007000085FD03C0808186FD0DC00FB607FCF7CFC5
:100710008C9185FFF2CF808185FFEDCFCE010E94C5
:10072000E602E9CFDF91CF910895833081F028F47C
:10073000813099F08230A9F008958730A9F088308F
:10074000C9F08430B1F4809180008F7D03C0809126
:1007500080008F7780938000089584B58F7784BD63
:10076000089584B58F7DFBCF8091B0008F77809303
:10077000B00008958091B0008F7DF9CF1F93CF9383
:10078000DF93282F30E0F901E15FFC4F8491F901FC
:10079000E550FD4FD491F901E951FD4FC491CC23AF
:1007A000A9F0162F81110E949503EC2FF0E0EE0FB7
:1007B000FF1FE758FD4FA591B4918FB7F894EC91C6
:1007C000111108C0D095DE23DC938FBFDF91CF914C
:1007D0001F910895DE2BF8CFCF93DF9390E0FC01BB
:1007E000E550FD4F249189519D4FFC018491882350
:1007F000C9F090E0880F991FFC01ED57FD4FA591BE
:10080000B491FC01E758FD4FC591D49161110DC021
:100810009FB7F8948C91209582238C93888128230C
:1008200028839FBFDF91CF910895623051F49FB725
:10083000F8943C91822F809583238C93E8812E2B12
:10084000EFCF8FB7F894EC912E2B2C938FBFEACF7C
:100850001F93CF93DF93182FEB0161E00E94EC030D
:10086000209739F460E0812FDF91CF911F910C9494
:10087000BE03CF3FD10511F461E0F5CFE12FF0E0E9
:10088000E15FFC4FE491E33031F140F4E130B1F04D
:10089000E230E1F0C038D1057CF7E4CFE73029F150
:1008A000E83059F1E430B1F78091800080628093A4
:1008B0008000D0938B00C0938A0004C084B5806808
:1008C00084BDC7BDDF91CF911F91089584B580622B
:1008D00084BDC8BDF7CF8091800080688093800080
:1008E000D0938900C0938800EDCF8091B0008068DC
:1008F0008093B000C093B300E5CF8091B0008062D8
:100900008093B000C093B400DDCF8E3008F08E50DD
:100910008770806480937C0080917A0080648093EB
:100920007A0080917A0086FDFCCF809178009091CA
:10093000790008953FB7F8948091BE039091BF036A
:10094000A091C003B091C10326B5A89B05C02F3F5D
:1009500019F00196A11DB11D3FBFBA2FA92F982FE5
:100960008827BC01CD01620F711D811D911D42E0E0
:10097000660F771F881F991F4A95D1F708958F92A8
:100980009F92AF92BF92CF92DF92EF92FF926B0154
:100990007C010E949A044B015C01C114D104E10462
:1009A000F104B9F00E949A04681979098A099B092F
:1009B000683E73408105910580F321E0C21AD10899
:1009C000E108F10888EE880E83E0981EA11CB11C96
:1009D000E4CFFF90EF90DF90CF90BF90AF909F90CB
:1009E0008F9008952FB7F8946091BA037091BB036C
:1009F0008091BC039091BD032FBF08954F925F92E9
:100A00006F927F92AF92BF92CF92DF92EF92FF925E
:100A10000F931F93CF93DF93EC016B017B01E40EE7
:100A2000F51E8B015801AC18BD080E151F0511F1FC
:100A30000E94F204688779878A879B87E881F98119
:100A40000284F385E02DCE01099597FF23C00E9413
:100A5000F204488459846A847B8464197509860980
:100A600097094C805D806E807F80641575058605D2
:100A7000970520F3C501DF91CF911F910F91FF9052
:100A8000EF90DF90CF90BF90AF907F906F905F908E
:100A90004F900895F80181938F01C4CF20914803AE
:100AA000260F3327331F21323105ECF420919103B7
:100AB000FC0190E080E0243069F082E00895A0918C
:100AC00048032191AC01485D5C4FA40FB52FB11DC7
:100AD0002C930196861798F380914803680F6093D2
:100AE000480380E0089581E008951092910381E029
:100AF0008093900310926B0361E082E10E94BE0339
:100B000061E083E10E94BE03E9EBF0E080818E7F2B
:100B1000808380818D7F808388E48093B80085E422
:100B20008093BC000895CF93DF9391E090932703C7
:100B30008823B9F0C091B800D091BA008091BC0070
:100B40008A7B8093BC0060E082E10E94BE0360E08B
:100B500083E10E94BE030E947505D093BA00C09342
:100B6000B800DF91CF910895E09137048091360469
:100B7000E81730F4F0E0E95FFC4F808190E00895E1
:100B80008FEF9FEF089590913704809136042FEFF7
:100B90003FEF981748F4E92FF0E0E95FFC4F208120
:100BA00030E09F5F90933704C90108958091360427
:100BB00090913704891B990B0895CF92DF92EF92A1
:100BC000FF920F931F93CF93DF937C01CB018A0198
:100BD00020919703222389F0EB016B01C40ED51EEF
:100BE000CC15DD0569F06991D701ED91FC9101907B
:100BF000F081E02DC7010995F3CF642F0E944E05C7
:100C0000C801DF91CF911F910F91FF90EF90DF907E
:100C1000CF900895CF93DF931F92CDB7DEB769834E
:100C2000209197032223F9F020913404203258F0C8
:100C300021E030E0FC013383228390E080E00F90DC
:100C4000DF91CF91089580913504E82FF0E0E856C8
:100C5000FC4F998190838F5F809335048093340497
:100C600081E090E0ECCF61E0CE0101960E944E055C
:100C7000F7CFCF92DF92EF92FF920F931F93CF9314
:100C8000DF93FC01C48121E020939703C093B80354
:100C900010923504109234048385682B86EF94E01B
:100CA0000E940A06D0913404D13208F092C00E940A
:100CB0009A046B017C0180919103811165C082E0EF
:100CC0008093910381E0809390038FEF80938F0353
:100CD00010928E03D0938D03A8E9B3E0EDE6F3E024
:100CE00080E0D81385C010926C0380916C03CC0F08
:100CF000C82BC0936C0380916B03813009F07CC0DA
:100D000010926B030E949A046B017C0180916C032A
:100D10008093BB008091930390919403A0919503DD
:100D2000B0919603892B8A2B8B2B99F00E949A0401
:100D300000919303109194032091950330919603B1
:100D40006C197D098E099F090617170728073907AF
:100D5000E0F18091BC0083FDD9CF85EC8093BC008D
:100D60000E949A046B017C0180919103823009F406
:100D700045C080918F038F3F61F180918F03803256
:100D800041F180918F0325C080919303909194034A
:100D9000A0919503B0919603892B8A2B8B2B09F494
:100DA0008ACF0E949A04009193031091940320919A
:100DB0009503309196036C197D098E099F090617DA
:100DC00017072807390708F076CF809192030E9411
:100DD0009305109235041092340410929703DF911A
:100DE000CF911F910F91FF90EF90DF90CF900895DA
:100DF0009D9191938F5F75CF85EEB0CF80919303D6
:100E000090919403A0919503B0919603892B8A2B1E
:100E10008B2B09F4A9CF0E949A040091930310919F
:100E2000940320919503309196036C197D098E09E6
:100E30009F09061717072807390708F095CFC5CF70
:100E4000FC0120812EBD9B012150310941F05181CF
:100E50000DB407FEFDCF4EB55EBD4193F5CF615099
:100E60007109860F971F0DB407FEFDCF2EB5FC014B
:100E700020830895E091C303F091C4038081909191
:100E8000C203892B80830895E091C303F091C403CA
:100E900090818091C20380958923808308958EBDBF
:100EA00000000DB407FEFDCF8EB50895AF92BF923E
:100EB000CF92DF92EF92FF920F931F93CF93DF9326
:100EC000CDB7DEB728970FB6F894DEBF0FBECDBF03
:100ED0008C017B016A01809158048333E1F458014D
:100EE000A40EB51EA016B10609F46FC00E944407F7
:100EF00080EF0E944F07812F0E944F07802F0E9492
:100F00004F070F5F1F4FF70181917F010E944F072D
:100F10000E943A07E7CF5B01A40EB51E8433C1F4EB
:100F20000E94440719830A838D2D80688B83CC82AD
:100F300064E070E0CE0101960E942007AE14BF0469
:100F400009F441C0F70181917F010E944F07F6CF5C
:100F50000E9444070F3F110509F028F419820A8303
:100F600084E08B830CC017FD17C019820A8333E01D
:100F7000169507953A95E1F7007E0C600B8386E0A5
:100F8000C816D104A0F5F701DE011496EA15FB0599
:100F900099F081918D93FACFC80126E096958795B7
:100FA0002A95E1F7807E19830A830115104C10F40D
:100FB0008461D7CF8C61D5CFB6016D5F7F4FCE01F5
:100FC00001960E9420070E943A07C60128960FB694
:100FD000F894DEBF0FBECDBFDF91CF911F910F916F
:100FE000FF90EF90DF90CF90BF90AF90089563E0B7
:100FF00070E0CE0101960E942007F70181917F01E8
:101000000E944F07AE14BF04C1F7DDCFCF93DF932B
:101010001F92CDB7DEB7898341E050E0BE016F5F1C
:101020007F4F90E080E00E9456070F90DF91CF91B4
:10103000089590E020915804233339F40C96982FAA
:10104000990F990F990F80E008954896F8CFDA012B
:10105000E091C603F0E0FE2FEE27E60FF71F90E0C9
:10106000982F8827A901BD018E0F9F1F0C9456074A
:10107000CF93DF9300D0CDB7DEB779836A8322E0C8
:1010800030E0AE014F5F5F4F60E170E00E942708E3
:101090000F900F90DF91CF910895CF93DF9300D001
:1010A000CDB7DEB779836A8322E030E0AE014F5FCF
:1010B0005F4F64E070E00E9427080F900F90DF916F
:1010C000CF910895CF93DF931F92CDB7DEB72091D4
:1010D000C60330E0322F2227260F371F90E0982FCB
:1010E0008827498341E050E0BE016F5F7F4F820F48
:1010F000931F0E9456070F90DF91CF910895CF93D1
:10110000DF931F92CDB7DEB76983DC01ED91FC91CF
:101110000280F381E02D41E050E0BE016F5F7F4F20
:1011200009950F90DF91CF910895FC019485FB0103
:101130008485981303C081E0943008F080E008951E
:10114000CF93DF931F92CDB7DEB76983DC01ED91BA
:10115000FC910280F381E02D41E050E0BE016F5F21
:101160007F4F09950F90DF91CF9108950895FF92D9
:101170000F931F93CF93DF93EB01FC01178A168A1D
:101180002A81211109C02B81211106C02C81211136
:1011900003C02D81222301F141155105E9F08A0197
:1011A000FC01F08C80E591E00E944502AE014E5FAB
:1011B0005F4F24E030E06CE070E08F2D0E94270844
:1011C000B8018F2D0E94380881E090E0DF91CF9127
:1011D0001F910F91FF90089580E0F7CFFC01848567
:1011E00095850895FC018489958908952BEC31E05B
:1011F000FC0131832083FB01408951896289738915
:10120000FC0142835383648375830895DC01ED916F
:10121000FC91048CF58DE02D099490E080E0089518
:101220008EE00E948504BC01990F880B990B0E94E7
:10123000533320E030E040EA50E40E94B23320E033
:1012400030EC4FE754E40E940A352AE037ED43E2E0
:101250005CE30E940A35089590E080E00E947003EC
:1012600090E080E00C94700390E080E00E947003B6
:1012700081E090E00C947003CF9380E390E00E94B3
:10128000700389E594E00E94C602892BD1F389E5B9
:1012900094E00E94A402C82F8093060389E594E09D
:1012A0000E94C602892BD1F389E594E00E94A40232
:1012B00020E03C2FA901482BCA01CF910895FC01E1
:1012C0009485992369F080819181DC01ED91FC91F5
:1012D0000688F789E02D099591E0811101C090E021
:1012E000892F0895DC011C961C921C978D919C916E
:1012F000DC01ED91FC910488F589E02D0994FC0155
:10130000768765870895DC01ED91FC9102A0F3A139
:10131000E02D099591E089270895862F089581E0B1
:101320008627089521E0FC018485843008F020E0C0
:10133000822F089508950F931F93CF938C01C62F8A
:101340000E9439066C2F6460C8010E9439066C2F18
:101350006B7FC8010E94390683EC90E00197F1F79A
:10136000CF911F910F9108950F931F93CF93DF9308
:101370008C01D62FC42F607F642B0E949B0980E1D3
:10138000D89FB00111246C2BC801DF91CF911F9120
:101390000F910C949B09CF93DF93CDB7DEB72897BD
:1013A0000FB6F894DEBF0FBECDBF98E0EDE2F1E0DE
:1013B000DE01119601900D929A95E1F7909140050A
:1013C000961708F46FEF262F30E0220F331F41E00D
:1013D00050E04C0F5D1F240F351FF9016081680F2D
:1013E000606840E088E395E028960FB6F894DEBF89
:1013F0000FBECDBFDF91CF910C94B40941E00E94A4
:10140000B40981E090E00895FB0101900020E9F724
:101410003197AF01461B570BDC01ED91FC91028027
:10142000F381E02D0994CF93DF930E945503EC01E3
:101430006DEC71E089E594E00E94040A8C0F9D1F19
:10144000DF91CF9108958F929F92AF92BF92EF92CA
:10145000FF920F931F93CF93DF93CDB7DEB7A19782
:101460000FB6F894DEBF0FBECDBF7C01FA01CB01F1
:1014700019A2223008F42AE08E010F5D1F4F822E40
:10148000912CB12CA12CBF01A50194010E94D9344B
:10149000F901CA016A300CF5605DD8016E938D01C7
:1014A000232B242B252B79F790E080E0109721F057
:1014B000BD01C7010E94040AA1960FB6F894DEBFD1
:1014C0000FBECDBFDF91CF911F910F91FF90EF9095
:1014D000BF90AF909F908F900895695CDECFCF93BF
:1014E000DF93AC0170E060E02AE089E594E00E94BF
:1014F000230AEC016DEC71E089E594E00E94040A96
:101500008C0F9D1FDF91CF910895462F50E070E022
:1015100060E02AE00C94230A8F929F92AF92BF92D0
:10152000CF92DF92EF92FF920F931F93CF93DF93AF
:101530007C018B014C0182E0880E911C5701E5E093
:10154000AE0EB11CD0E0C0E0F40161914F01C801C2
:101550000E94850A6C016EE2C8010E9461028C0D36
:101560009D1DC80FD91F8A149B0471F7F70165816F
:10157000C8010E94850A8C0F9D1FDF91CF911F919A
:101580000F91FF90EF90DF90CF90BF90AF909F9022
:101590008F9008956BE589E594E00E9461020E94B6
:1015A000F204AB01BC012AE089E594E00E94230A21
:1015B00082E691E00C9455036115710511F00C94CD
:1015C000040A90E080E008950C944D2FFB01808187
:1015D00091810E947A30892B91F081E090E00E9405
:1015E000700381E090E00E94700361E087E00E9458
:1015F000CB0960ED71E088E395E00C94DC0A81E0B2
:1016000090E00E94700390E080E00E94700361E02F
:1016100087E00E94CB0969ED71E0EDCFFB0180818D
:1016200091810E947A3021E0009709F420E0209314
:101630003904892B61F00E94340961E087E00E943F
:10164000CB0963EE71E088E395E00C94DC0A0E941C
:101650002C0961E087E00E94CB096CEE71E0F3CFCA
:10166000FB01808191810E947A3021E0009709F48A
:1016700020E020933804892B71F061E085E00E941E
:10168000BE0360E087E00E94CB0966EF71E088E36B
:1016900095E00C94DC0A60E085E00E94BE0360E007
:1016A00087E00E94CB096FEF71E0F1CFFB018081F1
:1016B00091810E947A30892B71F061E084E00E9470
:1016C000BE0360E087E00E94CB0969E072E088E336
:1016D00095E00C94DC0A60E084E00E94BE0360E0C8
:1016E00087E00E94CB0962E172E0F1CFAF92BF9236
:1016F000CF92DF92EF92FF920F931F93CF93DF93DE
:1017000000D000D0CDB7DEB78C016B017A0180919B
:1017100058048333E9F45B016801C40ED51EC0167A
:10172000D106A9F10E9444078FE00E944F07812F44
:101730000E944F07802F0E944F070F5F1F4F80E0CE
:101740000E944F07F50181935F010E943A07E7CF9E
:10175000843369F50E94440719830A838F2D8F779C
:101760008B83EC8264E070E0CE0101960E9420073A
:10177000A70170E060E0C6010E947136E114F10437
:1017800021F0B701C6010E9420070E943A07C70155
:101790000F900F900F900F90DF91CF911F910F91AD
:1017A000FF90EF90DF90CF90BF90AF9008950E9490
:1017B00044070F3F110509F030F419820A831B8298
:1017C00063E070E0D1CF17FD0BC019820A8333E0CC
:1017D000169507953A95E1F7007E08600B83F0CFE8
:1017E000C80126E0969587952A95E1F7807E1983B2
:1017F0000A830115104C18F480618B83E1CF886156
:10180000FCCFCF93DF931F92CDB7DEB72091C603F5
:1018100030E0322F2227260F371F90E0982F88279D
:1018200041E050E0BE016F5F7F4F820F931F0E9427
:10183000760B89810F90DF91CF910895CF93C82FB8
:10184000462F61E070E00E94620861E070E08C2F3A
:101850000E94010C8111F9CFCF910895CF93C82F29
:1018600080E591E00E94450268E070E08C2FCF9106
:101870000C941E0CCF93C82F80E591E00E94450286
:1018800060E170E08C2FCF910C941E0CCF93DF930E
:10189000EC01888D843020F40E943A0C84E0888F1B
:1018A000DF91CF910895CF93C82F80E591E00E94FA
:1018B000450263E070E08C2FCF910C94010CCF9324
:1018C000DF93EC018C858430D0F40E94530C84317A
:1018D00089F0882379F0883169F021E08C3159F45E
:1018E000E881F9810084F185E02DCE01099521E0A0
:1018F000892B09F420E0822FDF91CF91089580E0B9
:10190000FBCFCF92DF92EF92FF92CF93DF93EC0168
:101910008C85843068F40E942E0C0E94F2046B01C6
:101920007C018C850E94530C811109C084E08C8756
:10193000DF91CF91FF90EF90DF90CF90089561E01D
:1019400070E080E090E00E94BF040E94F204AB01CE
:10195000BC014C195D096E097F098D859E85B0E03B
:10196000A0E0481759076A077B07D8F28C850E94C8
:101970003A0CDCCFCF93FC01C08D80E591E00E9452
:10198000450260E270E08C2F0E941E0C62E070E065
:101990008C2F0E94010C84FD16C062E070E08C2F39
:1019A0000E94010C83FF0AC048E162E070E08C2FC6
:1019B0000E94620880E090E0CF91089580E591E078
:1019C0000E944502E3CF40E162E070E08C2F0E946C
:1019D000620881E0F0CFCF93DF931F92CDB7DEB7DF
:1019E00041E050E0BE016F5F7F4F90E080E00E94D9
:1019F000760B89810F90DF91CF910895CF93DF937C
:101A0000C4E1D0E00E94EB0C882361F061E070E05B
:101A100080E090E00E94BF042197A1F780E0DF9171
:101A2000CF91089581E0FBCF1F93CF93DF931F9257
:101A3000CDB7DEB7182F80E591E00E944502812FD7
:101A40000E94190827E0129FF0011124E45CFB4F6B
:101A500022813381377041E050E0BE016F5F7F4FDC
:101A6000820F931F0E94760B89810F90DF91CF9197
:101A70001F910895FC01808D843040F4218D328DBA
:101A8000232B21F00E94140D90E008958FEF9FEF1B
:101A90000895CF93DF93FC012485243028F08FEF45
:101AA0009FEFDF91CF910895EC010190F081E02D3F
:101AB0000084F185E02D0995892B89F38C850E949E
:101AC000140D90E0EECFDA01E091C603F0E0FE2FB6
:101AD000EE27E60FF71F90E0982F8827A901BD0198
:101AE0008E0F9F1F0C94760B8F929F92AF92BF9296
:101AF000CF92DF92EF92FF921F93CF93DF93CDB7F8
:101B0000DEB72C970FB6F894DEBF0FBECDBF209185
:101B1000580414E0222339F16B017C0180E591E047
:101B20000E9445025E0127E0A20EB11C450110E0B3
:101B300063E070E0812F0E94010CF40181934F015A
:101B4000882349F11F5F143099F710E0F501819166
:101B50005F018D31D9F08831C9F08A518230B0F0FF
:101B60001F5F143099F7812F2C960FB6F894DEBFC3
:101B70000FBECDBFDF91CF911F91FF90EF90DF900F
:101B8000CF90BF90AF909F908F90089560E170E0EC
:101B9000812F0E941E0CA12EB12C83EE93E00197A1
:101BA000F1F742E870E060E0812F0E9462084FEF99
:101BB00062E070E0812F0E946208B601C114D10476
:101BC00091F4809121019091220101968115F0EC10
:101BD0009F0708F45CC090932201809321016091DB
:101BE000210170912201812F0E944D0886E0E5E3DA
:101BF000F1E0DE01119601900D928A95E1F7F7016F
:101C000083818F778C8384818D8385818E83A701E7
:101C10004E5F5F4F24E030E06CE070E0812F0E9467
:101C20002708B601812F0E94380826E030E0AE0177
:101C30004F5F5F4F66E070E0812F0E94270861E0F0
:101C400070E0812F0E941E0C27E02A9DC0012B9D71
:101C5000900D11249C01245C3B4F7901F901118204
:101C6000108222E030E0AE01455F5F4F68E270E035
:101C7000812F0E94630D8B859C8598278927982743
:101C8000F701938382831682158214826CCF80E0E1
:101C900090ECA1CFCF92DF92EF92FF920F931F9320
:101CA000CF93DF9300D000D000D0CDB7DEB78C014A
:101CB0006B017A01FC01808D843010F40E943A0C93
:101CC0008BEC91E09A838983F60182819381A481D0
:101CD000B5818B839C83AD83BE83B701CE01019612
:101CE0000E94740DF801808F8430A0F4F586E4869C
:101CF000128E118E81E026960FB6F894DEBF0FBECD
:101D0000CDBFDF91CF911F910F91FF90EF90DF90AA
:101D1000CF90089580E0EFCFAF92BF92CF92DF9245
:101D2000EF92FF920F931F93CF93DF9300D000D0D9
:101D300000D0CDB7DEB7082F6B0180E591E00E949F
:101D400045029E012F5F3F4F7901590110E063E08A
:101D500070E0812F0E94010CF50181935F018823BF
:101D600041F11F5F143099F710E0F70181917F0175
:101D70008D31D1F08831C1F08A518230A8F01F5FD7
:101D8000143099F7812F26960FB6F894DEBF0FBE58
:101D9000CDBFDF91CF911F910F91FF90EF90DF901A
:101DA000CF90BF90AF90089560E170E0812F0E94C6
:101DB0001E0CE12EF12C83EE93E00197F1F7402FFA
:101DC00070E060E0812F0E9462084FEF62E070E0F7
:101DD000812F0E946208B601CD2889F480912101EB
:101DE0009091220101968115F0EC9F0798F1909354
:101DF0002201809321016091210170912201812FA4
:101E00000E944D0861E070E0812F0E941E0C27E0C7
:101E10002E9DC0012F9D900D11249C01245C3B4FF1
:101E20007901F9011182108222E030E0AE014B5FAE
:101E30005F4F68E270E0812F0E94630D8D819E816B
:101E4000982789279827F701938382831682158222
:101E5000148298CF80E090ECCACFCF92DF92EF92BD
:101E6000FF921F93CF93DF93EC017B016A018C8576
:101E7000843048F40E94530C882319F08C850E940A
:101E80002E0C84E08C87F70182819381A481B58137
:101E90000097A105B10551F490E080E0DF91CF916A
:101EA0001F91FF90EF90DF90CF9008958F3F9F4F4D
:101EB000AF4FBF4F89F380915804811103C084E074
:101EC0008C87EACF70E060E081E20E948C0E182FD0
:101ED0008C87843008F780E591E00E944502A701D5
:101EE0004E5F5F4F24E030E06CE070E0812F0E9495
:101EF0002708B601812F0E94380864E070E0812F26
:101F00000E941E0C0E94F2046B017C018C850E94D1
:101F1000530C873109F18C31F9F0882309F4BCCFD7
:101F20000E94F204AB01BC014C195D096E097F09E6
:101F30008D859E85B0E0A0E084179507A607B707BA
:101F400038F061E070E080E090E00E94BF04DECFF6
:101F50008C850E943A0CB3CF81E090E09FCF0F9325
:101F60001F93CF93DF93EC018B01888D843010F4A5
:101F70000E943A0C80915804811107C094E0988F18
:101F8000DF91CF911F910F910895B80182E00E94D7
:101F90008C0E888F843030F41D870C871A8E198E32
:101FA00081E0EECF80E0ECCF7F928F929F92AF9254
:101FB000BF92CF92DF92EF92FF920F931F93CF9336
:101FC000DF9300D0CDB7DEB7782E8B014A015901DF
:101FD00022E030E0AE014F5F5F4F64E270E00E94AC
:101FE000630DE980FA80FE24EF24FE24E00EF11E4A
:101FF0009701377040915804072D10E0433309F0E2
:1020000042C0085F1F4F102F0027110F110F110F33
:10201000C901800F911F4733C9F1A9014A0D5B1D0A
:102020004130584098F160E078E06B01C21AD30A61
:10203000A601B4010E945607A5014C195D09B4011F
:102040006C0D7D1DC8010E945607EA0CFB1CF9822D
:10205000EA8222E030E0AE014F5F5F4F64E270E061
:10206000872D0E9427080F900F90DF91CF911F912D
:102070000F91FF90EF90DF90CF90BF90AF909F9027
:102080008F907F900895005F1F4FBDCFA501B401D1
:10209000DACFEF92FF921F93CF93DF9300D0CDB7AB
:1020A000DEB7182F22E030E0AE014F5F5F4F60E2F5
:1020B00070E00E94630DE980FA80FE24EF24FE2484
:1020C00022E030E0AE014F5F5F4F60E270E0812FB1
:1020D0000E94630D89819A81982789279827E8169D
:1020E000F90689F487E0189FF0011124E45CFB4FA6
:1020F000F582E482C7010F900F90DF91CF911F917D
:10210000FF90EF9008957C01DBCF1F93CF93DF9377
:10211000182F80E591E00E944502812F0E9449100E
:10212000EC0163E070E0812F0E94010C873121F007
:102130008C3111F0D0E0C0E0CE01DF91CF911F9142
:102140000895CF93DF93EC018C85843060F40E9476
:10215000530C873111F08C3131F48C850E9485103D
:102160008115984088F3DF91CF910895FC01848513
:10217000843010F40C94851090E080E008959F92D4
:10218000AF92BF92CF92DF92EF92FF920F931F9385
:10219000CF93DF938C015B01942EE52EFC01C68862
:1021A000D788F08C80E591E00E9445028F2D0E9437
:1021B0004910C92DDE2D8C179D0708F4EC019E01F6
:1021C000A501B6018F2D0E94D40FF8018689978949
:1021D0008C0F9D1F978B868BCE01DF91CF911F9126
:1021E0000F91FF90EF90DF90CF90BF90AF909F90B6
:1021F00008958F929F92AF92BF92CF92DF92EF920B
:10220000FF920F931F93CF936C015B018A01FC0136
:10221000C485C430F0F57A014130584018F0E12C03
:1022200088E0F82E80E591E00E9445028C2F0E9404
:1022300049104C0163E070E08C2F0E94010C873143
:1022400011F08C3149F58E149F0460F380E591E024
:102250000E9445029701A50170E060E08C2F0E946A
:10226000D40F60E270E08C2F0E941E0C62E070E0E0
:102270008C2F0E94010C84FD17C063E070E08C2F4E
:102280000E94010C81110BC081E090E0F601938364
:10229000828310E000E010C0F12CE12CD7CF80E564
:1022A00091E00E944502E2CF40E162E070E08C2FB5
:1022B0000E946208EF2841F3C801CF911F910F914E
:1022C000FF90EF90DF90CF90BF90AF909F908F9056
:1022D0000895FF920F931F93CF93DF9300D0CDB754
:1022E000DEB7F82E22E030E0AE014F5F5F4F66E2CE
:1022F00070E00E94630D09811A81102701271027C1
:1023000022E030E0AE014F5F5F4F66E270E08F2D5C
:102310000E94630D89819A81982789279827081739
:10232000190749F4C8010F900F90DF91CF911F91C9
:102330000F91FF9008958C01E3CF1F93CF93DF930C
:10234000182F87E0189FE0011124C45CDB4F8881BF
:102350009981009761F480E591E00E944502812F08
:102360000E9469112E81821B910999838883DF91D4
:10237000CF911F910895FC018485843010F40C9452
:102380009D1190E080E008954F925F927F928F922E
:102390009F92AF92BF92CF92DF92EF92FF920F93F4
:1023A0001F93CF93DF9300D0CDB7DEB7782E6B01AC
:1023B0004A01A82EB12C27E0829FC0011124FC0104
:1023C000E45CFB4F7F010081118180E591E00E9478
:1023D00045020815190554F4872D0E946911F7016B
:1023E00026818C01021B110911830083011511053F
:1023F00029F563E070E0872D0E94010C843159F0CB
:10240000882349F001E010E08C3111F410E000E085
:10241000119501951109C8010F900F90DF91CF918F
:102420001F910F91FF90EF90DF90CF90BF90AF90F2
:102430009F908F907F905F904F90089580169106A7
:102440000CF4840187E08A9DF0018B9DF00D11242E
:10245000E45CFB4FE280F380C114D10451F1270109
:10246000F7E05F22872D0E941908840D951D2091A9
:102470005804273309F453C09801240D351D213029
:10248000384008F44CC020E038E049018418950831
:10249000A401B6010E94760B2601480C591C680164
:1024A000C818D908872D0E941908A601B2010E94F8
:1024B000760BE00EF11E87E08A9DF0018B9DF00DFA
:1024C0001124E45CFB4FF382E28220813181201BE6
:1024D000310B318320838681800F912F911D8A3F9C
:1024E000910510F4232BF1F487E08A9DF0018B9D78
:1024F000F00D1124E45CFB4F1682F982EA8222E09F
:1025000030E0AE014F5F5F4F68E270E0872D0E94C0
:10251000270860E470E0872D0E941E0C7CCFA80184
:10252000B601C5CF868377CFCF93DF93FC01218D92
:10253000328D2115310529F48FEF9FEFDF91CF9177
:102540000895EC01808D4217530708F0A9010E94FD
:10255000C4111816190684F7298D3A8D281B390BDA
:102560003A8F298FEBCF0F931F93CF93DF931F9257
:10257000CDB7DEB7FC01218D328D232B41F48FEFD7
:102580009FEF0F90DF91CF911F910F9108958C01D4
:1025900041E050E0BE016F5F7F4FFC01808D0E94E3
:1025A000C411181619065CF7F801818D928D0197F8
:1025B000928F818F898190E0E4CFCF93DF931F9238
:1025C000CDB7DEB741E050E0BE016F5F7F4FFC0149
:1025D00084850E94C4111816190634F4898190E08C
:1025E0000F90DF91CF9108958FEF9FEFF9CFFC010E
:1025F0008485843010F40C94C41190E080E0089538
:102600000F931F93CF93DF9300D0CDB7DEB7FC01BC
:1026100024852430E0F48C0180E591E00E9445029D
:1026200022E030E0AE014F5F5F4F60E170E0F80103
:1026300084850E94630D89819A819827892798272C
:102640000F900F90DF91CF911F910F91089590E01F
:1026500080E0F6CF0F931F93CF93DF9300D0CDB7D9
:10266000DEB7FC0124852430E0F48C0180E591E0A4
:102670000E94450222E030E0AE014F5F5F4F64E010
:1026800070E0F80184850E94630D89819A81982702
:10269000892798270F900F90DF91CF911F910F916D
:1026A000089590E080E0F6CFDC018BEC91E08D9313
:1026B0009D9384E0FB0101900D928A95E1F70895C6
:1026C000EF92FF920F931F93CF93DF9300D000D030
:1026D000CDB7DEB78C017B01FB0184858430A8F087
:1026E0008BEC91E0F8019183808312821382148233
:1026F0001582C8010F900F900F900F90DF91CF912E
:102700001F910F91FF90EF90089580E591E00E9456
:10271000450224E030E0AE014F5F5F4F6CE070E0B7
:10272000F70184850E94630DBE016F5F7F4FC80172
:102730000E945413DECF0F931F93CF93DF93CDB737
:10274000DEB728970FB6F894DEBF0FBECDBF8C0161
:10275000D80159964D915C915A974115510551F008
:10276000ED91FC91048CF58DE02D70E060E0C801E6
:102770000995EECFF801808D0E949D11892BB1F152
:1027800048E050E0BE016F5F7F4FD80158968C91B2
:102790000E94C41118161906F4F4D801509684E06A
:1027A000FE01319601900D928A95E1F78D8190E0BE
:1027B000982F88272E81820F911DF801958B848B8D
:1027C0008F81282F30E0322F22278885820F932F88
:1027D000911D928F818F28960FB6F894DEBF0FBEA1
:1027E000CDBFDF91CF911F910F91089590E080E0D0
:1027F000F2CF4F925F926F927F928F929F92AF92A1
:10280000BF92CF92DF92EF92FF920F931F93CF93DD
:10281000DF93CDB7DEB763970FB6F894DEBF0FBE78
:10282000CDBF7C016B013A01FB0120E090E080E02C
:102830006AE03191332309F461C040ED430F4A301F
:1028400008F04DC0689FA001699F500D1124CA0176
:10285000C097830F911D37FD9A958F3F910549F3DE
:1028600040F3F701428153816481758180912E0587
:1028700090912F05A0913005B09131054817590767
:102880006A077B0709F40DC28701085F1F4F0E948A
:10289000F2046F7077277C5FC8010E94AF0F813010
:1028A00009F004C28BEC91E09A838983F70182815D
:1028B0009381A481B5818B839C83AD83BE8345E3E3
:1028C00050E0BE016F5F7F4FC8010E94B708892B9F
:1028D000A9F5D12CC12CC8010E94460C17C03E326C
:1028E00009F0BFCF233009F4BCCFD301A20FB11D33
:1028F00012968C932F5F90E080E09BCF233009F0FD
:10290000B0CFF3018583CC24C394D12CC601639648
:102910000FB6F894DEBF0FBECDBFDF91CF911F91F0
:102920000F91FF90EF90DF90CF90BF90AF909F906E
:102930008F907F906F905F904F9008950E94F20467
:10294000F7017783668342E050E0B7016A5F7F4F0B
:10295000C8010E94BF1081E090E09A83898342E021
:1029600050E0BE016F5F7F4FC8010E94BF1080E042
:1029700091E09A83898342E050E0BE016F5F7F4F10
:10298000C8010E94BF101A82198242E050E0BE01C5
:102990006F5F7F4FC8010E94BF1042E050E0BE0150
:1029A0006F5F7F4FC8010E94BF1042E050E0BE0140
:1029B0006F5F7F4FC8010E94BF105601F6018081F2
:1029C000882301F16501F60181912F01882311F01F
:1029D0008E32B1F446018A189B081814190474F455
:1029E0008D8641E050E0BE01635F7F4FC8010E94C9
:1029F000BF10A401B501C8010E94BF105201DECF73
:102A00006201E1CF1D8641E050E0BE01635F7F4F70
:102A1000C8010E94BF10C12CDD24D394DA82C98280
:102A200042E050E0BE016F5F7F4FC8010E94BF10BF
:102A3000DA82C98242E050E0BE016F5F7F4FC80179
:102A40000E94BF10C8010E94BA0C892B09F441CF23
:102A5000F3E0AF2EB12C230122E0420E511CD4C072
:102A6000F7014281538164817581808D918DA28DA2
:102A7000B38D481759076A077B0709F008C1848D91
:102A8000958DC59709F003C181A192A15DEFC52E77
:102A9000DD24DA940C970CF4ADC04CE050E0BE019C
:102AA0006F5F7F4FC8010E9494128B819C81982791
:102AB000892798279A8B898BF7014681578129812D
:102AC0003A814217530709F0E7C097FFE5C08F70BE
:102AD00092703BEFC32EDD24DA94892B09F08AC073
:102AE0006F8078847624672476242AEFC22EDD2432
:102AF000DA946114710409F47DC0D12CC12C8D814C
:102B00009E81982789279827C816D906F8F441E0AE
:102B100050E0BE01635F7F4FC8010E9494124D8553
:102B2000442331F050E070E060E0C8010E9494124C
:102B30008D858111ECCF44E050E070E060E0C80189
:102B40000E949412FFEFCF1ADF0AD9CF912C812C6B
:102B500041E050E0BE016D5E7F4FC8010E949412BB
:102B60004B89842F807C09F06CC0442331F050E005
:102B700070E060E0C8010E9494128B898111E8CF57
:102B800042E050E0BE01615F7F4FC8010E94941295
:102B900042E050E0BE01635F7F4FC8010E94941283
:102BA00044E050E070E060E0C8010E94941242E00E
:102BB00050E0BE016F5E7F4FC8010E9494128F8566
:102BC000988949895A898115914009F043C0CD847B
:102BD000DE84DC24CD24DC2481E0C816D104D1F5C8
:102BE0004115544009F04AC044E050E0B201C80128
:102BF0000E94941221E0A21AB10809F46CCEFFEFF2
:102C0000CF16DF0609F067CE0E94F2043B014C01AB
:102C1000C8010E949B13181619060CF421CF0E94BC
:102C2000F2046619770988099909693873418105A1
:102C3000910548F562E370E080E090E00E94BF04F7
:102C4000E7CF41E050E070E060E0C8010E949412DC
:102C50001B8A93CF54274527542770E060E0C801B2
:102C60000E949412FFEF8F1A9F0A6814790409F0EA
:102C70006FCF96EFC92EDD24DA94BCCFE7EFCE2ECE
:102C8000DD24DA94B7CFCC24CA94DC2CB3CF6EEF1A
:102C9000C62EDD24DA94AECF4CEFC42EDD24DA94B8
:102CA000A9CF8EEFC82EDD24DA9430CED12CC12CE2
:102CB0002DCECF92DF92EF92FF920F931F93CF937F
:102CC000DF93CDB7DEB7AF970FB6F894DEBF0FBE78
:102CD000CDBF7C016A010BEC11E01A8309831C86CD
:102CE0001B8688EE93E0A0E0B0E08D879E87AF87DB
:102CF000B88B8FE391E09A878987188F0F8B198E95
:102D00001A8E1B8E1C8E84E089A31BA70AA71CA603
:102D10001DA61EA61FA68091220590912305A091B5
:102D20002405B09125058EA39FA3A8A7B9A78B83DF
:102D30009C83AD83BE8318861F82AE01465D5F4FC4
:102D4000CE0101960E94F91381309105B1F4D701AB
:102D5000ED91FC910488F589E02D1DA30CA38CA5B1
:102D60009DA5AEA5BFA58EA39FA3A8A7B9A7A601A1
:102D7000BE016C5D7F4FC7010995AF960FB6F89401
:102D8000DEBF0FBECDBFDF91CF911F910F91FF909E
:102D9000EF90DF90CF900895CF92DF92EF92FF9265
:102DA0000F931F93CF93DF93CDB7DEB7AF970FB6D7
:102DB000F894DEBF0FBECDBF8C016B017A018BECA6
:102DC00091E09A8389831B821C821D821E821C864D
:102DD0001B8648EE53E060E070E04D875E876F87AA
:102DE000788B2FE331E03A872987988F8F8B198E64
:102DF0001A8E1B8E1C8E24E029A39BA78AA71CA6D3
:102E00001DA61EA61FA6D8011C968C91843060F4C6
:102E10000E94530C882321F0F80184850E942E0C17
:102E200084E0D8011C968C93809122059091230513
:102E3000A0912405B09125058EA39FA3A8A7B9A7AB
:102E40008B839C83AD83BE8318861F82AE01465D53
:102E50005F4FB601CE0101960E94F9130097C1F0B1
:102E6000D801ED91FC910684F785E02D8BEC91E083
:102E70009DA38CA38CA59DA5AEA5BFA58EA39FA346
:102E8000A8A7B9A7A701BE016C5D7F4FC80109952E
:102E9000AF960FB6F894DEBF0FBECDBFDF91CF91D6
:102EA0001F910F91FF90EF90DF90CF9008957F9248
:102EB0008F929F92AF92BF92CF92DF92EF92FF924A
:102EC0000F931F93CF93DF93CDB7DEB7A6970FB6BF
:102ED000F894DEBF0FBECDBF8C01762E942E852ECA
:102EE00020E2A22ECE0101967C01DC01EA2D1D928A
:102EF000EA95E9F76801F3E4CF0ED11C8BEC91E081
:102F00009AA389A38FEF8BA38CA38DA38EA343E4F5
:102F100050E0BE016F5D7F4FC6010E94B708019669
:102F200009F4BFC081E089838A8386E0B82EBB8222
:102F30001C82D80114966D917D918D919C9117976B
:102F40000E9491356D837E838F83988789869A86C8
:102F500080E890E09C878B874CE150E0B701C60188
:102F60000E94BF10FE0137968AE1DF011D928A950B
:102F7000E9F74801B8E08B0E911CF401D7010190EC
:102F80000D92BA94E1F740E150E0B701C6010E940A
:102F9000BF10F7011192AA94E9F796E0A92EB12C7F
:102FA00040E250E0B701C6010E94BF10F1E0AF1A45
:102FB000B108B1F783E6898392E89A8393E59B830E
:102FC0008C8385E38D8381E08E837F829DE3988768
:102FD00097E099878A8786E0F401DE011B960190CD
:102FE0000D928A95E1F78CE0898B8A8B6CE172E017
:102FF000CE0143960E948136D8011B966C91CE017A
:1030000049960E944802F8016485CE014B960E94C1
:103010004802D8011D966C91CE014D960E9448023F
:103020004EE150E0B701C6010E94BF10B3E07B1231
:103030001EC082E3898384E08A83F80196859B839E
:1030400097859C8390899D8391899E8396E39F8336
:103050008887828D8987838D8A87848D8B87858DEC
:103060008C874CE050E0B701C6010E94BF1087E397
:10307000898386E08A8391E09B8393E09C838D83A0
:103080008FE08E838AE38F838BE388878FEF898736
:1030900049E050E0B701C6010E94BF10C6010E947E
:1030A000BA0CA6960FB6F894DEBF0FBECDBFDF9167
:1030B000CF911F910F91FF90EF90DF90CF90BF9035
:1030C000AF909F908F907F9008950F931F93CF9311
:1030D000DF93EC01FB0101900020E9F78F01061B53
:1030E000170B8A819B81A801480F591F2C813D81B4
:1030F0002417350768F028813981A801820F931FB2
:103100000E9468364A815B81400F511F5B834A836E
:10311000DF91CF911F910F9108950F931F93CF933C
:10312000DF93EC0188819981009759F02A813B81D6
:103130002617370730F081E0DF91CF911F910F9173
:1031400008958B016F5F7F4F0E949E35009759F065
:10315000998388831B830A832C813D81232B59F714
:10316000FC011082E8CF80E0E7CF85ED8093BC00C2
:103170008091930390919403A0919503B09196034D
:103180000796A11DB11D23E0B695A7959795879544
:103190002A95D1F72091BC0024FD03C01092910321
:1031A0000895409193035091940360919503709119
:1031B0009603452B462B472B69F30097A105B105D4
:1031C00041F025E32A95F1F700000197A109B10923
:1031D000E1CF809192030C9493053F924F925F92BE
:1031E0006F927F928F929F92AF92BF92CF92DF9217
:1031F000EF92FF920F931F93CF93DF93CDB7DEB77C
:10320000EA970FB6F894DEBF0FBECDBF7C012A014E
:103210003B0169010E94F2044B015C0187010D5BD7
:103220001F4FC8010E949B13181619069CF00E949C
:10323000F204681979098A099B0946165706680637
:10324000790608F466C162E370E080E090E00E94D5
:10325000BF04E7CF42E250E0BE016F5F7F4FC8017D
:103260000E94941289818230D1F0312C832DEA960C
:103270000FB6F894DEBF0FBECDBFDF91CF911F9187
:103280000F91FF90EF90DF90CF90BF90AF909F9005
:103290008F907F906F905F904F903F900895F801CE
:1032A000848995898334910501F76D817E818F81B1
:1032B00098850E9491354B015C01F60180829182D4
:1032C000A282B38246E050E0B701685F7F4FCE0133
:1032D0004D960E945B36892B41F6F70180819181E2
:1032E000A281B38188169906AA06BB0608F4BDCF51
:1032F00084819581A681B78188159905AA05BB05AA
:1033000008F4B3CF89899A89AB89BC898687978766
:10331000A08BB18B4EEC50E070E060E0C8010E94E1
:103320009412312CC701829698AB8FA7F701B696FD
:10333000FAABE9AB08969CAB8BAB67019AE1C90E7F
:10334000D11CBD96FEABEDABC701429698AF8FABDB
:10335000FD97FAAFE9AF4701FEE18F0E911CF8012E
:10336000818D928D181619060CF080CFC8010E942D
:10337000B3128333910509F4B2C014F5813091057D
:1033800009F464C044F4892B51F3C8010E94B312BC
:10339000AC01552775C08330910509F462C00697CA
:1033A000A1F7C8010E94B312B82E44E050E0B40166
:1033B000C8010E949412EB2DE450FF0BAF0160C0D6
:1033C0008A33910509F45FC084F585339105B1F125
:1033D000C697D9F6C8010E94B3125C01B601CE01AE
:1033E00089960E9454138BA59CA5ADA5BEA5892BDB
:1033F0008A2B8B2BB1F0EDA9FEA940805180628011
:103400007380B601CE0183960E9454138DA19EA1B4
:10341000AFA1B8A5A501481659066A067B0609F0B2
:10342000B8CF44E050E0B60118C08B33910509F4E1
:1034300040C08F3F910509F492CFA7CFC8010E94E9
:10344000B312C8010E94B312382E89CFC8010E945E
:10345000B31244E050E06FA978ADC8010E94941205
:103460007ECFC8010E94B312B82E44E050E069AD8F
:103470007AADC8010E9494128B2D8450990BAC0137
:1034800070E060E0EACFC8010E94B31244E050E06F
:1034900069A97AA9C8010E949412F70166A177A1CF
:1034A00080A591A50E94913566A377A380A791A7D7
:1034B00056CFC8010E94B31244E050E06BA97CA92A
:1034C000C8010E949412F70162A573A584A595A571
:1034D0000E94913562A773A784A795A740CFC80122
:1034E0000E94B31244E050E06FA578A9C8010E9481
:1034F0009412F70162A173A184A195A10E94913554
:1035000062A373A384A395A366A777A780AB91ABAF
:1035100026CF33243A94AACE0F931F93CF93DF93F1
:10352000CDB7DEB762970FB6F894DEBF0FBECDBF42
:103530008C01CB014AE0BE016F5F7F4F0E94C83013
:10354000BE016F5F7F4FC8010E94651862960FB67B
:10355000F894DEBF0FBECDBFDF91CF911F910F91C9
:1035600008953F924F925F926F927F928F929F92B7
:10357000AF92BF92CF92DF92EF92FF920F931F9381
:10358000CF93DF93CDB7DEB7A1970FB6F894DEBF28
:103590000FBECDBF5C010DB71EB719A308A360E035
:1035A00070E0CB010E94BF04D50157968D919C918C
:1035B0005897912C029709F4BFC356968C91569751
:1035C0008F5F56968C93569754962D913C91232B52
:1035D00019F099249394A9C38330D8F7F501808119
:1035E00091810E945F09882309F47FC38E010F5FD8
:1035F0001F4F3801D501ED91FC9180819181DC0153
:10360000ED91FC910084F185E02D099518161906BD
:103610000CF06BC3D501ED91FC9145E050E0BE018B
:10362000695E7F4F808191810E94FE04009711F3B3
:10363000059709F074C0888D998D98278927982758
:10364000998F888FEA8CFB8CFE24EF24FE24FB8E5E
:10365000EA8E892B09F463C08F89811173C00E949F
:10366000F204F50166837783808791872789308DFF
:103670008A8D9B8D232B09F061C0288D398D2130D7
:10368000310509F05BC089309105E1F1883C910575
:1036900019F0049709F047C00E94CA0A8FEC92E023
:1036A0000E945503D50116964D915D916D917C91C7
:1036B00019971E968D919D910D90BC91A02D481B40
:1036C000590B6A0B7B0B2AE089E594E00E94230AE0
:1036D0008AEC92E00E94130AF50186819781A08509
:1036E000B18586879787A08BB18B01E010E0108FA2
:1036F000078BC5010E94B22460E070E0CB010E94FC
:10370000BF0478CF0E94CA0A8BEF93E00E94130A8D
:1037100083E090E0D50158969C938E935797D501FE
:103720008D919C91FFC20E94CA0A84EE93E00E9490
:1037300055038A8D9B8D0E946F0AF1CF059709F082
:1037400059CFEDCFB1E0EB16FB0690F00E94CA0A0C
:1037500083ED93E00E9455038A8D9B8D0E946F0A32
:10376000F501108E178A808191810E94720942CFE3
:103770008DB69EB6C70101960DB71EB7081B190B73
:103780000FB6F8941EBF0FBE0DBF0F5F1F4FD501C0
:10379000ED91FC91A701B801808191810E94FE0406
:1037A0008E159F0509F07BC0EA8DFB8DE00FF11FA0
:1037B00010820E94F204F5016683778380879187E7
:1037C0008F89813109F47CC2A0F58630F1F08F3009
:1037D00009F4D7C0823099F5D50157968D919C9107
:1037E000892B99F40E94CA0A8DEC93E00E94130A77
:1037F00001E010E0F501108F078BC5010E94B22493
:1038000060E070E0CB010E94BF04488D598DD12C3F
:10381000C12CF12CE12C08EC10E030E020E060E05D
:10382000C5010E9404200FB6F8949EBE0FBE8DBE47
:10383000E1CE8D3189F258F4843109F4A2C0F5014A
:10384000108E178A808191810E947209ECCF893293
:1038500081F08733A1F78A8D9B8D892B21F30E94FC
:10386000CA0A84EB93E00E945503C8010E947D249C
:10387000DACF84819581892B39F480E490E00E942D
:10388000B12EF50195838483EA8CFB8CE00EF11E4A
:103890001A830983FC82EB820E151F0530F00FB6E8
:1038A000F8949EBE0FBE8DBE3ACF40E450E0B80102
:1038B000D50114968D919C910E948836D50114965D
:1038C000ED91FC9117AEC3010E949024FC01808110
:1038D000918100E510E08E159F0570F489819A8131
:1038E000009709F44AC02B813C818217930708F0A6
:1038F00044C00E9498308B010E94CA0A8DEB93E06D
:103900000E945503D50114966D917C9189E594E050
:103910000E94DC0A6AE389E594E00E946102C80122
:103920000E946F0AF501808191810E947209D50180
:10393000ED91FC91119714968D919C91159791871B
:1039400080871387028758961C921E9257970E9471
:10395000F204DC01CB0188589341A109B109F501BA
:1039600082879387A487B58786839783A087B1874B
:1039700086879787A08BB18B56CF60E070E0CB0134
:10398000BACF888D998DD50155969C938E93549777
:103990004A8C5B8C6801C40CD51C1D8F0C8FDF8E8C
:1039A000CE8E0C151D0508F013C1F801E080F180E2
:1039B000CE014C960E949024DC018D919C918C1537
:1039C0009D0508F005C18C8D9D8DFC012081213461
:1039D00059F401960E947A304EE0342E380E069744
:1039E00044F033243A9405C0CE014C960E94A3249F
:1039F000382EF6E7EF16F2E7FF0609F406C138F5B0
:103A000031E6E31632E7F30609F4E6C044E6E416CD
:103A100042E7F40609F478C050E7E5165DE6F506DE
:103A200009F037C18C8D9D8D8C159D0508F0D0C097
:103A3000FC0120812134A9F501960E947A303EE0F4
:103A4000F32EF80E069794F1FF24FA942FC084E623
:103A5000E81687E7F80609F4A2C096E7E91697E7A3
:103A6000F90609F4E9C0A1E6EA16A7E7FA0609F0A3
:103A700010C1CE014C960E949024DC018D919C9146
:103A80008C159D0508F0A4C061E0832D0E94EC0315
:103A9000CE014C960E94A324BC01832D0E942804D1
:103AA00097C0CE014C960E94A324F82ECE014C96CE
:103AB0000E9490240C8D1D8D63E272E0C8010E946B
:103AC000783660E0892B79F066E272E0C8010E94E6
:103AD0007836892B39F06AE272E0C8010E947836A4
:103AE000892B49F461E08F2D0E94EC03CE014C96A6
:103AF0000E94902497CF6EE272E0C8010E9478364F
:103B0000892BA1F762E0EFCF7A8A698A1C8A1B8A27
:103B100000E110E01E8B0D8B61E372E0CE01419657
:103B20000E946518032D10E0B801CE0141960E9455
:103B30008C1AF801E15FFC4F8491F801E550FD4FCC
:103B4000F49009511D4FF801049160E070E00023EA
:103B500089F081110E949503E02FF0E0EE0FFF1F26
:103B6000E352FD4FA591B491EC91FE2261E070E02B
:103B700009F460E0CE0141960E948C1A0B891C89E1
:103B80000150110929893A89D12CC12CF12CE12C41
:103B900050E040E064E1C5010E94042019C0CE015C
:103BA0004C960E949024DC018D919C918C159D0572
:103BB00078F461E0832D0E94EC03CE014C960E94C4
:103BC000A32461E0892B09F460E0832D0E94BE03E9
:103BD000F501158A148A27CE7A8A698A1C8A1B8A7B
:103BE000E0E1F0E0FE8BED8B64E372E0CE01419604
:103BF0000E946518632D70E0CE0141960E948C1AD8
:103C0000832D0E948504BC01B5CF3982BFE1B31575
:103C1000F8F2E32DF0E0EE0FFF1FED5DFC4F259174
:103C2000349121153105A1F2E2E024343E0781F2FE
:103C3000C301F9010995CCCFCE014C960E94902486
:103C40008C8D9D8D9C01201B310B421A530A9A8347
:103C500089835C824B825E824D82398AFFE1F31553
:103C600008F4B6CFE32DF0E0EE0FFF1FED59FC4F47
:103C7000259134912115310509F4AACF02E02334AE
:103C8000300709F4A5CFB301CE014196F90109959A
:103C90009FCF0E94CA0A83EA93E00E945503C8019D
:103CA0000E947D24D50154964D915C91D12CC12C5C
:103CB000F12CE12C02E010E030E020E060E06BCF7E
:103CC0008A8D9B8D800F911F1A8309839C838B8320
:103CD0000817190708F0A7CDC3010E949024D50149
:103CE00055961C921E9254979ECD0E94F2042B0171
:103CF0003C01F501808191810E945F09D5015796B1
:103D00002D913C9158972130310509F094C0F5016F
:103D1000811132C046865786608A718A108E178A52
:103D2000808191810E947209912CD50156968C91C7
:103D30005697815056968C93892DE8A1F9A10FB61C
:103D4000F894FEBF0FBEEDBFA1960FB6F894DEBF8C
:103D50000FBECDBFDF91CF911F910F91FF90EF90DC
:103D6000DF90CF90BF90AF909F908F907F906F909B
:103D70005F904F903F90089586819781A085B1858F
:103D800093018201081B190B2A0B3B0BD901C801B7
:103D9000893116EF9107A105B10560F00E94CA0AAA
:103DA0008CE194E00E94130AD50158961C921E9251
:103DB0005797B6CC893C9F4AA105B10598F4F50107
:103DC00082859385A485B58593018201081B190B13
:103DD0002A0B3B0BD901C801893C9F4AA105B105BB
:103DE00008F4F7CBF50186859785A089B189930101
:103DF0008201081B190B2A0B3B0BD901C801813723
:103E00009741A105B10508F4E4CBD12CC12CF12CCC
:103E1000E12C10E000E030E020E050E040E066E01F
:103E2000C5010E940420D5011E964D925D926D92AF
:103E30007C925197CECB232B09F0CBCBF501468555
:103E400057856089718993018201041B150B260B2C
:103E5000370BB901A8018823A9F041375741610503
:103E6000710508F4B6CB0E94CA0A8EE094E00E9465
:103E7000130AD5018D919C910E947209F501108E53
:103E8000178A52CF493853416105710508F4A1CB17
:103E90008D919C910E947209F50100811181D801D8
:103EA00018968D919C91892BB9F10E94CA0A8CEACF
:103EB00092E00E945503F8016085718589E594E0E0
:103EC0000E94DC0A6AE389E594E00E946102D8015D
:103ED0001A968D919C910E946F0AF80180819181C0
:103EE0004285538560857185DC01ED91FC910088E8
:103EF000F189E02D099599249394019709F0912C6B
:103F0000F801948691105DC0D5011E964D925D9288
:103F10006D927C92519709CF0E94CA0A8BEB92E076
:103F20000E945503D80114966C9189E594E00E9493
:103F3000850A6EE289E594E00E946102F8016581DC
:103F400089E594E00E94850A6EE289E594E00E948A
:103F50006102D80116966C9189E594E00E94850A69
:103F60006EE289E594E00E946102F801678189E5CB
:103F700094E00E94850A6DEC71E089E594E00E946E
:103F8000040AD8018D919C91DC01ED91FC9106848D
:103F9000F785E02DD8011A964D915C911B972BEC7B
:103FA00031E03A8329831496CD90DD90ED90FC901A
:103FB0001797CB82DC82ED82FE82BE016F5F7F4F5E
:103FC00099CF81E090E0F501938B828B2281338140
:103FD000F90101900020E9F731978F01021B130BC3
:103FE000D12CC12CF12CE12C41E050E06DE1C50158
:103FF0000E940420F50182859385A485B585868776
:104000009787A08BB18B91CE2F923F924F925F9268
:104010006F927F928F929F92AF92BF92CF92DF92D8
:10402000EF92FF920F931F93CF93DF9300D000D0B6
:1040300000D0CDB7DEB75C016E834A013901DC01E7
:104040008D919C910E945F09882309F4D3C08E81D1
:104050008D7F09F401C1BE81B63009F4FDC0BD31C8
:1040600009F4FAC0F5018789908D019709F0C2C063
:1040700081149104B9F4D50154968D909C90559774
:104080008114910479F452968D919C9153970196E5
:1040900009F4C9C053969C938E935297D5015296BA
:1040A0008D909C908E818C50893090F5F5018285A1
:1040B0009385A485B58546815781608571854817AC
:1040C00059076A077B0710F4AC01BD011A012B01E7
:1040D000F2E42F0E311C411C511C0E94F204A2017B
:1040E0009101261B370B480B590BDA01C901B7FDAB
:1040F000A0C0C5010E94B11A0E94F204A201910160
:10410000261B370B480B590BDA01C901B7FFF1CF5A
:10411000C80105966114710411F485E090E0512CFA
:10412000412CE114F10409F02601480E591EBE810C
:10413000B9839824892498249B828A82C8018C0D93
:104140009D1D9827892798279D838C83D501ED9104
:10415000FC9180819181DC01ED91FC910280F381E1
:10416000E02D45E050E0BE016F5F7F4F09954C01A7
:1041700060E070E0CB010E94BF04BE81BB2381F1EF
:1041800001151105A9F0D501ED91FC918081918176
:10419000DC01ED91FC910280F381E02DA801B301D7
:1041A0000995880E991E60E070E0CB010E94BF0463
:1041B000C114D104A9F0D501ED91FC9180819181C8
:1041C000DC01ED91FC910280F381E02DA601B701A5
:1041D0000995880E991E60E070E0CB010E94BF0433
:1041E0008414950479F1F501108E178A80819181EC
:1041F0000E94720926960FB6F894DEBF0FBECDBF9F
:10420000DF91CF911F910F91FF90EF90DF90CF90B2
:10421000BF90AF909F908F907F906F905F904F90E6
:104220003F902F90089581E090E0F501938B828B71
:1042300035CFD50156968C9181116ACFC5010E9468
:10424000B11A66CF0E94F204D5011A966D937D9340
:104250008D939C931D97CECF8114910409F058CF74
:104260000ACFCF92DF92EF92FF920F931F93CF93DB
:10427000DF93CDB7DEB7C658D1090FB6F894DEBFCD
:104280000FBECDBF8C01CE010196CF57DF4F998372
:104290008883C158D040CD57DF4F19821882C35848
:1042A000D04080E890E0CB57DF4F99838883C55892
:1042B000D04069E472E0CE018F579F4F0E9465188D
:1042C00066E070E0CE018F579F4F0E948C1AB801B4
:1042D000CE018F579F4F0E946518CD57DF4F088141
:1042E0001981C358D04001501109CF57DF4F2881A1
:1042F0003981C158D040D12CC12CF12CE12C50E097
:1043000040E064E18CE896E00E940420CA57DF4F49
:104310000FB6F894DEBF0FBECDBFDF91CF911F91D6
:104320000F91FF90EF90DF90CF900895CF92DF92A2
:10433000EF92FF920F931F93CF93DF93CDB7DEB72A
:10434000C658D1090FB6F894DEBF0FBECDBF7C01B1
:104350008B01CE010196CF57DF4F99838883C158D7
:10436000D040CD57DF4F19821882C358D04080E823
:1043700090E0CB57DF4F99838883C558D04069E4DC
:1043800072E0CE018F579F4F0E946518B701CE0192
:104390008F579F4F0E948C1AB801CE018F579F4FA5
:1043A0000E948C1ACD57DF4F08811981C358D04025
:1043B00001501109CF57DF4F28813981C158D040B2
:1043C000D12CC12CF12CE12C50E040E064E18CE8D0
:1043D00096E00E940420CA57DF4F0FB6F894DEBF64
:1043E0000FBECDBFDF91CF911F910F91FF90EF9046
:1043F000DF90CF9008958F929F92AF92BF92CF920D
:10440000DF92EF92FF920F931F93CF93DF93CDB77D
:10441000DEB7C75AD1090FB6F894DEBF0FBECDBFC5
:104420000E9410096B017C01CE0101964C01CE5512
:10443000DF4F99838883C25AD040CC55DF4F198211
:104440001882C45AD04020E8A22EB12CCA55DF4FA2
:10445000B982A882C65AD04069E472E08F559F4F56
:104460000E94651861E070E0CE018E559F4F0E945A
:104470008C1A8E010F571F4F23E045E0C701B6018C
:104480000E94932EB801CE018E559F4F0E94651851
:10449000CC55DF4F08811981C45AD0400150110911
:1044A000CE55DF4F28813981C25AD040D12CC12C42
:1044B000F12CE12C50E040E064E18CE896E00E94B1
:1044C00004200E943C098C01CE55DF4F99828882DE
:1044D000C25AD040CC55DF4F19821882C45AD040FE
:1044E000CA55DF4FB982A882C65AD04069E472E04B
:1044F000CE018E559F4F0E94651863E070E0CE019B
:104500008E559F4F0E948C1A4AE0BE016F577F4F15
:10451000C8010E94F030BE016F577F4FCE018E550B
:104520009F4F0E946518CC55DF4F08811981C45AEE
:10453000D04001501109CE55DF4F28813981C25A30
:10454000D04050E040E064E18CE896E00E94042016
:10455000C955DF4F0FB6F894DEBF0FBECDBFDF9158
:10456000CF911F910F91FF90EF90DF90CF90BF9070
:10457000AF909F908F9008951F920F920FB60F9259
:1045800011242F933F934F935F936F937F938F9358
:104590009F93AF93BF93EF93FF9389E594E00E94BD
:1045A000E602FF91EF91BF91AF919F918F917F9123
:1045B0006F915F914F913F912F910F900FBE0F9090
:1045C0001F9018951F920F920FB60F9211242F93E0
:1045D0008F939F93EF93FF93E0916904F0916A04A6
:1045E0008081E0916F04F091700482FD1BC0908186
:1045F000809172048F5F8F7320917304821741F052
:10460000E0917204F0E0E75AFB4F958F80937204BB
:10461000FF91EF919F918F912F910F900FBE0F906F
:104620001F9018958081F4CF1F920F920FB60F92B2
:1046300011242F933F938F939F93AF93BF938091B8
:10464000BA039091BB03A091BC03B091BD0330911C
:10465000B90323E0230F2D3758F50196A11DB11D95
:104660002093B9038093BA039093BB03A093BC0338
:10467000B093BD038091BE039091BF03A091C0038E
:10468000B091C1030196A11DB11D8093BE0390930B
:10469000BF03A093C003B093C103BF91AF919F919B
:1046A0008F913F912F910F900FBE0F901F901895F3
:1046B00026E8230F0296A11DB11DD2CF1F920F92A3
:1046C0000FB60F9211242F933F934F935F936F93E5
:1046D0007F938F939F93AF93BF93EF93FF938091BB
:1046E000B900887F803609F44AC0F0F5883209F4B1
:1046F000A7C018F5803109F49BC0B8F4882309F4E9
:10470000F9C0883009F494C0FF91EF91BF91AF9147
:104710009F918F917F916F915F914F913F912F91D9
:104720000F900FBE0F901F901895883109F488C024
:10473000803251F780938F0314C0803409F49DC0F8
:1047400040F48033B9F38833F9F680938F0385EC16
:10475000B0C0803509F485C0883509F496C0883426
:1047600099F60E94B518D0CF883909F48CC038F575
:10477000883729F050F4883611F0803729F683E025
:104780008093910310926A0357C0883809F47BC064
:10479000803919F0803809F0B7CF80916A038032F0
:1047A00008F071C0E0916A0381E08E0F80936A0384
:1047B0008091BB00F0E0E65BFC4F80833DC0803B16
:1047C00039F0E0F4803A09F479C0883A09F09CCFD6
:1047D00084E0809391031092490310924803E09182
:1047E0003204F091330409958091480381110FC080
:1047F00081E0809348031092280309C0803C09F4AB
:10480000A6CF883C09F4A3CF883B09F07DCFE09187
:10481000490381E08E0F80934903F0E0E85DFC4F8F
:1048200080818093BB00909149038091480329C007
:1048300080916C038093BB0085EC8093BC0064CFB7
:1048400090918E0380918D03981758F5E0918E0317
:1048500081E08E0F80938E03F0E0E359FC4F80815E
:10486000E9CFE0918E0381E08E0F80938E038091DB
:10487000BB00F0E0E359FC4F808390918E03809160
:104880008D039817C8F285E8D8CFE0918E0381E0B8
:104890008E0F80938E038091BB00F0E0E359FC4FB4
:1048A00080838091900381115CCF81E080936B03C2
:1048B00084EA8093BC001092910326CF85EC80930C
:1048C000BC001092910380916A03803230F4E09131
:1048D0006A03F0E0E65BFC4F108260916A0370E0CF
:1048E000E0913004F09131048AE493E0099510924C
:1048F0006A030ACF10928F0334CFCF93DF93BC01AA
:1049000089E594E00E94040AEC016DEC71E089E510
:1049100094E00E94040A8C0F9D1FDF91CF910895AF
:10492000DC01ED91FC911197309761F012962D9179
:104930003C911397E217F30728F401900020E9F760
:10494000ED93FC930895FC0180819181009739F0EB
:10495000228133818217930710F40C947A3090E00F
:1049600080E00895AF92BF92CF92DF92EF92FF92D4
:104970000F931F93CF93DF93CDB7DEB7CF5BD109F2
:104980000FB6F894DEBF0FBECDBF5C01CE018658D6
:104990009F4FC654DF4F99838883CA5BD040C4546D
:1049A000DF4F19821882CC5BD04080E490E0C25483
:1049B000DF4F99838883CE5BD04067E372E0CE01FE
:1049C00086549F4F0E9465186CE372E0CE018654B6
:1049D0009F4F0E94651849E750E06DE671E0CE01F7
:1049E00001960E94BF30C454DF4FC880D980CC5B91
:1049F000D040C654DF4FE880F980CA5BD04009E759
:104A000010E09E012F5F3F4F50E040E061E1C501A3
:104A10000E940420C154DF4F0FB6F894DEBF0FBED2
:104A2000CDBFDF91CF911F910F91FF90EF90DF905D
:104A3000CF90BF90AF90089510925C0410925B04E9
:104A400088EE93E0A0E0B0E080935D0490935E0474
:104A5000A0935F04B093600429E631E030935A04D8
:104A60002093590425EC30E03093660420936504CC
:104A700024EC30E0309368042093670420EC30E0AD
:104A800030936A042093690421EC30E030936C0485
:104A900020936B0422EC30E030936E0420936D047D
:104AA00026EC30E03093700420936F04109272046F
:104AB0001092730410927404109275041092F90409
:104AC0001092F8048093FA049093FB04A093FC04E2
:104AD000B093FD048BE791E09093F7048093F60484
:104AE0008BEC91E0909303058093020510920405EE
:104AF000109205051092060510920705909309057E
:104B00008093080510920A0510920B0510920C056F
:104B100010920D0590930F0580930E0510921005CD
:104B2000109211051092120510921305909315051D
:104B3000809314051092160510921705109218050F
:104B40001092190590931B0580931A0510921C056D
:104B500010921D0510921E0510921F0590932705B7
:104B600080932605109228051092290510922A0597
:104B700010922B0590932105809320051092220519
:104B800010922305109224051092250590932D056F
:104B900080932C0510922E0510922F05109230054F
:104BA00010923105909333058093320510923405AD
:104BB0001092350510923605109237059093C8066D
:104BC0008093C7061092C9061092CA061092CB06AF
:104BD0001092CC061092BB061092BA0629E931E079
:104BE0003093B9062093B80624E02093C40628EE3B
:104BF00033E03093C6062093C5069093AE068093AB
:104C0000AD061092AF061092B0061092B106109247
:104C1000B2061092B4061092B3061092B606109225
:104C2000B5061092B70688EB96E09093AC06809399
:104C3000AB0680E797E1A0E0B0E08093BC069093DC
:104C4000BD06A093BE06B093BF068BEA96E0909394
:104C50008D0680938C0610928F0610928E0610920D
:104C6000910610929006109292061092930610925E
:104C7000940610929506109296061092970610923E
:104C800098061092990610929A0610929B0610921E
:104C90009C0610929D0610929F0610929E061092FE
:104CA000A1061092A0061092A2061092A4061092DD
:104CB000A30610928706109286061092890610921B
:104CC000880610928B0610928A0670E060E086E8F3
:104CD00096E00E948D1820918606309187068111FA
:104CE0002EC02115310519F0C9010E944D2F1092D7
:104CF00087061092860610928B0610928A061092F2
:104D00008906109288068FEF9FEF90938506809317
:104D1000840610923B0510923A058DE891E090933D
:104D200039058093380587E280933C0580E18093C4
:104D3000410582E080934205109243050895109248
:104D40008B0610928A066CEC72E0C9010E948136D3
:104D5000DACFCF93DF93CDB7DEB7AD970FB6F89428
:104D6000DEBF0FBECDBF789484B5826084BD84B5AC
:104D7000816084BD85B5826085BD85B5816085BD56
:104D800080916E00816080936E001092810080910E
:104D90008100826080938100809181008160809396
:104DA0008100809180008160809380008091B100BB
:104DB00084608093B1008091B00081608093B000E6
:104DC00080917A00846080937A0080917A0082607A
:104DD00080937A0080917A00816080937A0080913C
:104DE0007A00806880937A001092C100E091690493
:104DF000F0916A0482E08083E0916504F09166049A
:104E00001082E0916704F091680487E68083109235
:104E10007104E0916D04F0916E0486E08083E0916E
:104E20006B04F0916C04808180618083E0916B045D
:104E3000F0916C04808188608083E0916B04F09134
:104E40006C04808180688083E0916B04F0916C0435
:104E500080818F7D80830E94CA0A8EE992E00E9441
:104E6000130A8EEF8093A5069DEE9093A6062AEB7B
:104E70002093A7068093A8068093A9069093AA067C
:104E800020E031E0D9010D900020E9F79D0121508B
:104E90003140A0E0B1E0E1E0F0E0AD014050514030
:104EA0004217530784F4AF014F5F5F4F6D91E45792
:104EB000F94F818D8627818F4630510514F041E0EE
:104EC00050E0FA01EACF8091280481112AC01092A3
:104ED000100410920F0488EE93E0A0E0B0E08093FD
:104EE000110490931204A0931304B09314048FE35D
:104EF00091E090930E0480930D048BEC91E09093DD
:104F00001C0480931B0410921D0410921E04109226
:104F10001F041092200484E08093250481E0809394
:104F200028048AEC93E09093C9038093C80380918E
:104F3000C7038111ADC060E372E080E090E00E94A1
:104F4000BF04DFB6F89401EF12E0E5E0EE2EE3E0F7
:104F5000FE2E8091C503811125C0F8018491F701CF
:104F60009491E82FF0E0EE0FFF1FED57FD4FA59154
:104F7000B4918C91982321F461E08AE00E94BE03F1
:104F800061E08AE00E94EC038CB580618CBD8CB539
:104F900080648CBD61E08DE00E94EC0361E08BE0F9
:104FA0000E94EC038091C5038F5F8093C503DFBE31
:104FB000F8010491E02FF0E0EE0FFF1FE758FD4FDE
:104FC000859194919093C4038093C303F701E49077
:104FD000E092C20361E08AE00E94EC030E943A077B
:104FE00080E591E00E94450284E38093580480E8C4
:104FF0000E9406080E94FE0C882309F432C288E051
:105000000E9406080E94EB0C883009F02AC280E159
:105010000E9406080E94EB0C803109F022C280E059
:105020000E9406080E94EB0C182F81111AC241E061
:1050300050E0BE016F5F7F4F8FE190E00E94760BE2
:105040008981833009F00DC280E48093C60342E079
:105050006EE170E0812F0E94620842E06FE170E033
:10506000812F0E9462081F5F143089F740E06EE1D3
:1050700070E0812F0E94620840E06FE170E0812FB4
:105080000E9462081F5F183089F781E08093C70390
:1050900080E591E00E94450246E050E065EA76E056
:1050A00089E090E00E9456078BEC91E09A83898317
:1050B0001B821C821D821E8244E050E0BE016D5F97
:1050C0007F4F8FE090E00E9456070091C803109137
:1050D000C903D80192961D921D921D921C9295971C
:1050E000F80116A217A210A611A69A961D921D925B
:1050F0001D921C929D9780E69AEEA0E0B0E086ABF0
:1051000097ABA0AFB1AF80EA9FE0A0E0B0E082AF84
:1051100093AFA4AFB5AFD801189686E0FD01282F54
:1051200011922A95E9F79801225F3F4F94E1F90126
:1051300011929A95E9F7E5EAF6E001900D928A95C9
:10514000E1F72C5C3F4F3BA72AA7D9011C920E9494
:1051500022302FEC37E040E050E00E947034DC0158
:10516000CB010196A11DB11DF80184839583A6830F
:10517000B78380839183A283B3835801F3E4AF0E96
:10518000B11CC5010E94460C64E470E0C5010E9498
:10519000AF0F882309F4CEC10E94F2042B013C0119
:1051A00048EEC42E43E0D42EE12CF12C52E0252E03
:1051B000912C812CAAA5BBA58C918330B9F18111CA
:1051C000C9C1F80184819581A681B7810196A11D8D
:1051D000B11D84839583A683B7830E94F20464196A
:1051E000750986099709A70196010E94D934A9017A
:1051F00061E0C8010E94571781E0AAA5BBA58C9366
:10520000F1E08F169104B1F20E94F204641975095D
:1052100086099709D801D6962D913D914D915C91C3
:10522000D997261737074807590710F6C5010E9476
:10523000460CF80184819581A681B7810196A11D54
:10524000B11D84839583A683B7830E94F204F8017D
:10525000FE9660837183828393838A94892809F000
:1052600069C180E591E00E9445020091C803109158
:10527000C903B801625F7F4FCE0101960E945413AB
:1052800044E050E0BE016D5F7F4F8FE090E00E94F0
:105290005607B8016A5E7F4FCE0101960E945413F3
:1052A00044E050E0BE016D5F7F4F81E090E00E94DE
:1052B0005607B8016E5E7F4FCE0101960E945413CF
:1052C00044E050E0BE016D5F7F4F85E090E00E94BA
:1052D0005607B801625E7F4FCE0101960E945413BB
:1052E0008B819C81AD81BE818093220590932305A3
:1052F000A0932405B09325050E949A047F738091A2
:1053000021019091220168277927709322016093EF
:10531000210168EE73E080E090E00E94BF048BEC16
:1053200091E09A8389831B821C821D821E8280E504
:1053300091E00E94450244E050E0BE016D5F7F4F66
:105340008FE090E00E94760B0E94CA0A8DE892E0FE
:105350000E9455036B8189E594E00E94850A6EE204
:1053600089E594E00E9461026C8189E594E00E94E5
:10537000850A6EE289E594E00E9461026D8189E50B
:1053800094E00E94850A6EE289E594E00E94610241
:105390006E8189E594E00E94850A6DEC71E089E5F3
:1053A00094E00E94040A80E091E090938F0680933D
:1053B0008E060E94F204DC01CB0188589341A109BA
:1053C000B1098093960690939706A0939806B093A0
:1053D00099068093920690939306A0939406B093B7
:1053E000950680939A0690939B06A0939C06B09393
:1053F0009D060E94CA0A88EE91E00E94130AE0917D
:105400008C06F0918D068CE492E09187808780E590
:1054100090E09387828780918C0690918D060E9400
:1054200072091092A4061092A3060E94F2046B0166
:105430007C018091A3069091A406019709F455C1BF
:105440000E94F2046C197D098E099F09603576442B
:105450008105910508F049C18CE896E00E94B11AD7
:10546000E8CF87E38093580480E80E9406080E94F2
:10547000FE0C882329F188E00E9406080E94EB0CAC
:105480008830F1F480E10E9406080E94EB0C182F8E
:105490008031B1F480E00E9406080E94EB0C81117B
:1054A0000FC041E050E0BE016F5F7F4F89E390E0A5
:1054B0000E94760B8981843019F41093C603E5CDE0
:1054C00083E38093580480E80E9406080E94FE0C43
:1054D000882371F180E10E9406080E94EB0C803164
:1054E00039F582E10E9406080E94EB0C823101F539
:1054F00080E00E9406080E94EB0C811119C084E034
:105500008093C60315E519A741E050E0BE01675D31
:105510007F4F8BE190E00E94560718A741E050E0D2
:10552000BE01685D7F4F8AE190E00E945607ADCDD5
:10553000109258040E94CA0A81E992E00E94130A5C
:1055400060E177E280E090E00E94BF04F0E0E0E0FC
:105550000995FFCF8430F9F4F80184819581A68103
:10556000B7810196A11DB11D84839583A683B7835E
:105570000E94F2046419750986099709A70196012A
:105580000E94D934A90163E0C8010E945717AAA557
:10559000BBA52C9235CE813059F5F80142AD53AD03
:1055A00064AD75AD9E012F5F3F4FC8010E94ED189D
:1055B000382EF2E08F1392C089819A81AB81BC8131
:1055C000F80184839583A683B7830E94F20464194B
:1055D000750986099709A70196010E94D934A90186
:1055E00063E0C8010E945717AAA5BBA53C9208CE4C
:1055F000823009F005CEF80142AD53AD64AD75AD12
:105600009E012F5F3F4FC8010E94ED18382EF5E034
:105610008F135DC0E3E0AAA5BBA5EC93F80182A1BE
:1056200093A1A4A1B5A1892B8A2B8B2B41F484E8EB
:1056300093E0A0E0B0E082A393A3A4A3B5A3F801F4
:1056400086A197A1A0A5B1A5892B8A2B8B2B61F4EC
:1056500082A193A1A4A1B5A1B695A7959795879589
:1056600086A397A3A0A7B1A7F80182A593A5A4A597
:10567000B5A5892B8A2B8B2BA9F482A193A1A4A178
:10568000B5A1AC01BD0123E0769567955795479587
:105690002A95D1F7841B950BA60BB70B82A793A76E
:1056A000A4A7B5A7F80186A197A1A0A5B1A586A733
:1056B00097A7A0ABB1AB82A593A5A4A5B5A582ABD6
:1056C00093ABA4ABB5AB88248394912C99CDF6E031
:1056D0008F1304C0AAA5BBA51C9292CDBFEF3B12AD
:1056E0008FCDEAA5FBA510828BCD8091A30690916A
:1056F000A406019709F08FCE109237041092360459
:1057000010923504109234040E9475058EE592E0E3
:1057100090933304809332048FE592E090933104A8
:105720008093300410923D0580914205823018F03C
:1057300098E090933D058093400562E370E080E03F
:1057400090E00E94BF046091430588E395E00E94C9
:10575000390668EE73E080E090E00E94BF0460E3E9
:1057600088E395E00E949B090BE416E4C8010197C9
:10577000F1F760E388E395E00E949B09C801019777
:10578000F1F760E388E395E00E949B0983E592E0EE
:105790000197F1F760E288E395E00E949B09609130
:1057A0003D05606240E088E395E00E94B40984E032
:1057B00080933E0540E06CE088E395E00E94B409E8
:1057C00040E061E088E395E00E94B4090BE31FE14B
:1057D000C8010197F1F782E080933F0540E066E061
:1057E00088E395E00E94B40940E062E088E395E038
:1057F0000E94B409C8010197F1F788E0809343053E
:1058000060E088E395E00E94390640E061E088E3CB
:1058100095E00E94B409C8010197F1F740E062E009
:1058200088E395E00E94B409C8010197F1F760E0B0
:1058300080E00E94CB0968E572E088E395E00E9471
:10584000DC0A61E080E00E94CB096BE572E088E34E
:1058500095E00E94DC0A61E084E00E94EC0361E0D4
:1058600085E00E94EC0360E084E00E94BE0360E0FB
:1058700085E00E94BE0361E083E00E94EC038FEFAD
:1058800090E00E9470038FEF90E00E9470038FEF12
:1058900090E00E947003809184069091850697FFA6
:1058A00018C00E94F204E4E4F5E044E856E024E184
:1058B000DF01322F1D923A95E9F76083718382836D
:1058C000938374964E175F0799F71092850610928E
:1058D00084068091840690918506409774F4E4E4F0
:1058E000F5E090E080E024813581232B09F4E4C1C8
:1058F0000196749680319105B1F7CC24C394D12CD4
:1059000022242A94312C8CE896E00E94B11A0E943D
:10591000F2046AA77BA78CA79DA734E4E32E35E0A9
:10592000F32E8701D80153961C921E92529714961B
:105930008D919C911597892BA1F14D905D906D9063
:105940007C9013976AA57BA58CA59DA56419750904
:105950008609970919968D909D90AD90BC901C97E3
:10596000681579058A059B05E0F0A50194010E9460
:10597000D934C501B4010E948135460E571E681EF8
:10598000791EF80140825182628273828189882364
:1059900041F0258536852115310509F04EC1D38AA0
:1059A000C28A0C5E1F4F24E836E02017310709F049
:1059B000B9CFD70152968D919C915397892B99F12C
:1059C0001496ED91FC91159718968C911897882351
:1059D00009F44AC116968D919C910995F701828927
:1059E0009389029701F58091840690918506892B11
:1059F000D1F084819581892BB1F0D701E4E11D922A
:105A0000EA95E9F70E94F204D7016D937D938D9397
:105A10009C931397809184069091850601979093AB
:105A2000850680938406B4E1EB0EF11CE016F106C6
:105A300009F0BFCF0E9410091BA21AA21DA21CA22E
:105A40001FA21EA28E010F5F1F4F22E044E00E94A2
:105A5000932E7C01009709F410C1FC0101900020F5
:105A6000E9F731978F01081B190BB801CE01829617
:105A70000E948D182AA13BA18111F8C02115310582
:105A800019F0C9010E944D2F1BA21AA21FA21EA22B
:105A90001DA21CA28091860690918706009709F4AA
:105AA000F4C06AA17BA16115710509F4ECC04091B5
:105AB0008806509189062EA13FA14217530708F48A
:105AC000E2C00E9481368EA19FA190938B068093A5
:105AD0008A061FA21EA28AA19BA1009711F00E9414
